{
	"data": {
		"bytecode": {
			"linkReferences": {},
			"object": "608060405234801561000f575f5ffd5b50604051610ec8380380610ec88339818101604052810190610031919061022f565b335f5f6101000a81548173ffffffffffffffffffffffffffffffffffffffff021916908373ffffffffffffffffffffffffffffffffffffffff16021790555060405180604001604052808381526020018281525060015f820151815f015560208201518160010190816100a49190610490565b50905050505061055f565b5f604051905090565b5f5ffd5b5f5ffd5b5f819050919050565b6100d2816100c0565b81146100dc575f5ffd5b50565b5f815190506100ed816100c9565b92915050565b5f5ffd5b5f5ffd5b5f601f19601f8301169050919050565b7f4e487b71000000000000000000000000000000000000000000000000000000005f52604160045260245ffd5b610141826100fb565b810181811067ffffffffffffffff821117156101605761015f61010b565b5b80604052505050565b5f6101726100af565b905061017e8282610138565b919050565b5f67ffffffffffffffff82111561019d5761019c61010b565b5b6101a6826100fb565b9050602081019050919050565b8281835e5f83830152505050565b5f6101d36101ce84610183565b610169565b9050828152602081018484840111156101ef576101ee6100f7565b5b6101fa8482856101b3565b509392505050565b5f82601f830112610216576102156100f3565b5b81516102268482602086016101c1565b91505092915050565b5f5f60408385031215610245576102446100b8565b5b5f610252858286016100df565b925050602083015167ffffffffffffffff811115610273576102726100bc565b5b61027f85828601610202565b9150509250929050565b5f81519050919050565b7f4e487b71000000000000000000000000000000000000000000000000000000005f52602260045260245ffd5b5f60028204905060018216806102d757607f821691505b6020821081036102ea576102e9610293565b5b50919050565b5f819050815f5260205f209050919050565b5f6020601f8301049050919050565b5f82821b905092915050565b5f6008830261034c7fffffffffffffffffffffffffffffffffffffffffffffffffffffffffffffffff82610311565b6103568683610311565b95508019841693508086168417925050509392505050565b5f819050919050565b5f61039161038c610387846100c0565b61036e565b6100c0565b9050919050565b5f819050919050565b6103aa83610377565b6103be6103b682610398565b84845461031d565b825550505050565b5f5f905090565b6103d56103c6565b6103e08184846103a1565b505050565b5b81811015610403576103f85f826103cd565b6001810190506103e6565b5050565b601f82111561044857610419816102f0565b61042284610302565b81016020851015610431578190505b61044561043d85610302565b8301826103e5565b50505b505050565b5f82821c905092915050565b5f6104685f198460080261044d565b1980831691505092915050565b5f6104808383610459565b9150826002028217905092915050565b61049982610289565b67ffffffffffffffff8111156104b2576104b161010b565b5b6104bc82546102c0565b6104c7828285610407565b5f60209050601f8311600181146104f8575f84156104e6578287015190505b6104f08582610475565b865550610557565b601f198416610506866102f0565b5f5b8281101561052d57848901518255600182019150602085019450602081019050610508565b8683101561054a5784890151610546601f891682610459565b8355505b6001600288020188555050505b505050505050565b61095c8061056c5f395ff3fe608060405234801561000f575f5ffd5b506004361061004a575f3560e01c8063061678bf1461004e57806324b1cc131461006d57806335c305101461008b578063bd296297146100a7575b5f5ffd5b6100566100c3565b60405161006492919061036e565b60405180910390f35b610075610161565b604051610082919061039c565b60405180910390f35b6100a560048036038101906100a091906104f2565b61016c565b005b6100c160048036038101906100bc91906104f2565b610229565b005b5f606060015f0154600180018080546100db90610566565b80601f016020809104026020016040519081016040528092919081815260200182805461010790610566565b80156101525780601f1061012957610100808354040283529160200191610152565b820191905f5260205f20905b81548152906001019060200180831161013557829003601f168201915b50505050509050915091509091565b5f60015f0154905090565b5f5f9054906101000a900473ffffffffffffffffffffffffffffffffffffffff1673ffffffffffffffffffffffffffffffffffffffff163373ffffffffffffffffffffffffffffffffffffffff16146101fa576040517f08c379a00000000000000000000000000000000000000000000000000000000081526004016101f190610606565b60405180910390fd5b6001805f015f82825461020d9190610651565b92505081905550806001800190816102259190610824565b5050565b5f5f9054906101000a900473ffffffffffffffffffffffffffffffffffffffff1673ffffffffffffffffffffffffffffffffffffffff163373ffffffffffffffffffffffffffffffffffffffff16146102b7576040517f08c379a00000000000000000000000000000000000000000000000000000000081526004016102ae90610606565b60405180910390fd5b6001805f015f8282546102ca91906108f3565b92505081905550806001800190816102e29190610824565b5050565b5f819050919050565b6102f8816102e6565b82525050565b5f81519050919050565b5f82825260208201905092915050565b8281835e5f83830152505050565b5f601f19601f8301169050919050565b5f610340826102fe565b61034a8185610308565b935061035a818560208601610318565b61036381610326565b840191505092915050565b5f6040820190506103815f8301856102ef565b81810360208301526103938184610336565b90509392505050565b5f6020820190506103af5f8301846102ef565b92915050565b5f604051905090565b5f5ffd5b5f5ffd5b5f5ffd5b5f5ffd5b7f4e487b71000000000000000000000000000000000000000000000000000000005f52604160045260245ffd5b61040482610326565b810181811067ffffffffffffffff82111715610423576104226103ce565b5b80604052505050565b5f6104356103b5565b905061044182826103fb565b919050565b5f67ffffffffffffffff8211156104605761045f6103ce565b5b61046982610326565b9050602081019050919050565b828183375f83830152505050565b5f61049661049184610446565b61042c565b9050828152602081018484840111156104b2576104b16103ca565b5b6104bd848285610476565b509392505050565b5f82601f8301126104d9576104d86103c6565b5b81356104e9848260208601610484565b91505092915050565b5f60208284031215610507576105066103be565b5b5f82013567ffffffffffffffff811115610524576105236103c2565b5b610530848285016104c5565b91505092915050565b7f4e487b71000000000000000000000000000000000000000000000000000000005f52602260045260245ffd5b5f600282049050600182168061057d57607f821691505b6020821081036105905761058f610539565b5b50919050565b7f4f6e6c7920746865206f776e65722063616e20696e6372656d656e74206f72205f8201527f64656372656d656e742074686520636f756e7465720000000000000000000000602082015250565b5f6105f0603583610308565b91506105fb82610596565b604082019050919050565b5f6020820190508181035f83015261061d816105e4565b9050919050565b7f4e487b71000000000000000000000000000000000000000000000000000000005f52601160045260245ffd5b5f61065b826102e6565b9150610666836102e6565b925082820190508082111561067e5761067d610624565b5b92915050565b5f819050815f5260205f209050919050565b5f6020601f8301049050919050565b5f82821b905092915050565b5f600883026106e07fffffffffffffffffffffffffffffffffffffffffffffffffffffffffffffffff826106a5565b6106ea86836106a5565b95508019841693508086168417925050509392505050565b5f819050919050565b5f61072561072061071b846102e6565b610702565b6102e6565b9050919050565b5f819050919050565b61073e8361070b565b61075261074a8261072c565b8484546106b1565b825550505050565b5f5f905090565b61076961075a565b610774818484610735565b505050565b5b818110156107975761078c5f82610761565b60018101905061077a565b5050565b601f8211156107dc576107ad81610684565b6107b684610696565b810160208510156107c5578190505b6107d96107d185610696565b830182610779565b50505b505050565b5f82821c905092915050565b5f6107fc5f19846008026107e1565b1980831691505092915050565b5f61081483836107ed565b9150826002028217905092915050565b61082d826102fe565b67ffffffffffffffff811115610846576108456103ce565b5b6108508254610566565b61085b82828561079b565b5f60209050601f83116001811461088c575f841561087a578287015190505b6108848582610809565b8655506108eb565b601f19841661089a86610684565b5f5b828110156108c15784890151825560018201915060208501945060208101905061089c565b868310156108de57848901516108da601f8916826107ed565b8355505b6001600288020188555050505b505050505050565b5f6108fd826102e6565b9150610908836102e6565b92508282039050818111156109205761091f610624565b5b9291505056fea264697066735822122059e3cba37c1199afc7bfaa3745c38cd5017a4f4c0af8277e366fdd6fbb2efdff64736f6c634300081e0033",
			"opcodes": "PUSH1 0x80 PUSH1 0x40 MSTORE CALLVALUE DUP1 ISZERO PUSH2 0xF JUMPI PUSH0 PUSH0 REVERT JUMPDEST POP PUSH1 0x40 MLOAD PUSH2 0xEC8 CODESIZE SUB DUP1 PUSH2 0xEC8 DUP4 CODECOPY DUP2 DUP2 ADD PUSH1 0x40 MSTORE DUP2 ADD SWAP1 PUSH2 0x31 SWAP2 SWAP1 PUSH2 0x22F JUMP JUMPDEST CALLER PUSH0 PUSH0 PUSH2 0x100 EXP DUP2 SLOAD DUP2 PUSH20 0xFFFFFFFFFFFFFFFFFFFFFFFFFFFFFFFFFFFFFFFF MUL NOT AND SWAP1 DUP4 PUSH20 0xFFFFFFFFFFFFFFFFFFFFFFFFFFFFFFFFFFFFFFFF AND MUL OR SWAP1 SSTORE POP PUSH1 0x40 MLOAD DUP1 PUSH1 0x40 ADD PUSH1 0x40 MSTORE DUP1 DUP4 DUP2 MSTORE PUSH1 0x20 ADD DUP3 DUP2 MSTORE POP PUSH1 0x1 PUSH0 DUP3 ADD MLOAD DUP2 PUSH0 ADD SSTORE PUSH1 0x20 DUP3 ADD MLOAD DUP2 PUSH1 0x1 ADD SWAP1 DUP2 PUSH2 0xA4 SWAP2 SWAP1 PUSH2 0x490 JUMP JUMPDEST POP SWAP1 POP POP POP POP PUSH2 0x55F JUMP JUMPDEST PUSH0 PUSH1 0x40 MLOAD SWAP1 POP SWAP1 JUMP JUMPDEST PUSH0 PUSH0 REVERT JUMPDEST PUSH0 PUSH0 REVERT JUMPDEST PUSH0 DUP2 SWAP1 POP SWAP2 SWAP1 POP JUMP JUMPDEST PUSH2 0xD2 DUP2 PUSH2 0xC0 JUMP JUMPDEST DUP2 EQ PUSH2 0xDC JUMPI PUSH0 PUSH0 REVERT JUMPDEST POP JUMP JUMPDEST PUSH0 DUP2 MLOAD SWAP1 POP PUSH2 0xED DUP2 PUSH2 0xC9 JUMP JUMPDEST SWAP3 SWAP2 POP POP JUMP JUMPDEST PUSH0 PUSH0 REVERT JUMPDEST PUSH0 PUSH0 REVERT JUMPDEST PUSH0 PUSH1 0x1F NOT PUSH1 0x1F DUP4 ADD AND SWAP1 POP SWAP2 SWAP1 POP JUMP JUMPDEST PUSH32 0x4E487B7100000000000000000000000000000000000000000000000000000000 PUSH0 MSTORE PUSH1 0x41 PUSH1 0x4 MSTORE PUSH1 0x24 PUSH0 REVERT JUMPDEST PUSH2 0x141 DUP3 PUSH2 0xFB JUMP JUMPDEST DUP2 ADD DUP2 DUP2 LT PUSH8 0xFFFFFFFFFFFFFFFF DUP3 GT OR ISZERO PUSH2 0x160 JUMPI PUSH2 0x15F PUSH2 0x10B JUMP JUMPDEST JUMPDEST DUP1 PUSH1 0x40 MSTORE POP POP POP JUMP JUMPDEST PUSH0 PUSH2 0x172 PUSH2 0xAF JUMP JUMPDEST SWAP1 POP PUSH2 0x17E DUP3 DUP3 PUSH2 0x138 JUMP JUMPDEST SWAP2 SWAP1 POP JUMP JUMPDEST PUSH0 PUSH8 0xFFFFFFFFFFFFFFFF DUP3 GT ISZERO PUSH2 0x19D JUMPI PUSH2 0x19C PUSH2 0x10B JUMP JUMPDEST JUMPDEST PUSH2 0x1A6 DUP3 PUSH2 0xFB JUMP JUMPDEST SWAP1 POP PUSH1 0x20 DUP2 ADD SWAP1 POP SWAP2 SWAP1 POP JUMP JUMPDEST DUP3 DUP2 DUP4 MCOPY PUSH0 DUP4 DUP4 ADD MSTORE POP POP POP JUMP JUMPDEST PUSH0 PUSH2 0x1D3 PUSH2 0x1CE DUP5 PUSH2 0x183 JUMP JUMPDEST PUSH2 0x169 JUMP JUMPDEST SWAP1 POP DUP3 DUP2 MSTORE PUSH1 0x20 DUP2 ADD DUP5 DUP5 DUP5 ADD GT ISZERO PUSH2 0x1EF JUMPI PUSH2 0x1EE PUSH2 0xF7 JUMP JUMPDEST JUMPDEST PUSH2 0x1FA DUP5 DUP3 DUP6 PUSH2 0x1B3 JUMP JUMPDEST POP SWAP4 SWAP3 POP POP POP JUMP JUMPDEST PUSH0 DUP3 PUSH1 0x1F DUP4 ADD SLT PUSH2 0x216 JUMPI PUSH2 0x215 PUSH2 0xF3 JUMP JUMPDEST JUMPDEST DUP2 MLOAD PUSH2 0x226 DUP5 DUP3 PUSH1 0x20 DUP7 ADD PUSH2 0x1C1 JUMP JUMPDEST SWAP2 POP POP SWAP3 SWAP2 POP POP JUMP JUMPDEST PUSH0 PUSH0 PUSH1 0x40 DUP4 DUP6 SUB SLT ISZERO PUSH2 0x245 JUMPI PUSH2 0x244 PUSH2 0xB8 JUMP JUMPDEST JUMPDEST PUSH0 PUSH2 0x252 DUP6 DUP3 DUP7 ADD PUSH2 0xDF JUMP JUMPDEST SWAP3 POP POP PUSH1 0x20 DUP4 ADD MLOAD PUSH8 0xFFFFFFFFFFFFFFFF DUP2 GT ISZERO PUSH2 0x273 JUMPI PUSH2 0x272 PUSH2 0xBC JUMP JUMPDEST JUMPDEST PUSH2 0x27F DUP6 DUP3 DUP7 ADD PUSH2 0x202 JUMP JUMPDEST SWAP2 POP POP SWAP3 POP SWAP3 SWAP1 POP JUMP JUMPDEST PUSH0 DUP2 MLOAD SWAP1 POP SWAP2 SWAP1 POP JUMP JUMPDEST PUSH32 0x4E487B7100000000000000000000000000000000000000000000000000000000 PUSH0 MSTORE PUSH1 0x22 PUSH1 0x4 MSTORE PUSH1 0x24 PUSH0 REVERT JUMPDEST PUSH0 PUSH1 0x2 DUP3 DIV SWAP1 POP PUSH1 0x1 DUP3 AND DUP1 PUSH2 0x2D7 JUMPI PUSH1 0x7F DUP3 AND SWAP2 POP JUMPDEST PUSH1 0x20 DUP3 LT DUP2 SUB PUSH2 0x2EA JUMPI PUSH2 0x2E9 PUSH2 0x293 JUMP JUMPDEST JUMPDEST POP SWAP2 SWAP1 POP JUMP JUMPDEST PUSH0 DUP2 SWAP1 POP DUP2 PUSH0 MSTORE PUSH1 0x20 PUSH0 KECCAK256 SWAP1 POP SWAP2 SWAP1 POP JUMP JUMPDEST PUSH0 PUSH1 0x20 PUSH1 0x1F DUP4 ADD DIV SWAP1 POP SWAP2 SWAP1 POP JUMP JUMPDEST PUSH0 DUP3 DUP3 SHL SWAP1 POP SWAP3 SWAP2 POP POP JUMP JUMPDEST PUSH0 PUSH1 0x8 DUP4 MUL PUSH2 0x34C PUSH32 0xFFFFFFFFFFFFFFFFFFFFFFFFFFFFFFFFFFFFFFFFFFFFFFFFFFFFFFFFFFFFFFFF DUP3 PUSH2 0x311 JUMP JUMPDEST PUSH2 0x356 DUP7 DUP4 PUSH2 0x311 JUMP JUMPDEST SWAP6 POP DUP1 NOT DUP5 AND SWAP4 POP DUP1 DUP7 AND DUP5 OR SWAP3 POP POP POP SWAP4 SWAP3 POP POP POP JUMP JUMPDEST PUSH0 DUP2 SWAP1 POP SWAP2 SWAP1 POP JUMP JUMPDEST PUSH0 PUSH2 0x391 PUSH2 0x38C PUSH2 0x387 DUP5 PUSH2 0xC0 JUMP JUMPDEST PUSH2 0x36E JUMP JUMPDEST PUSH2 0xC0 JUMP JUMPDEST SWAP1 POP SWAP2 SWAP1 POP JUMP JUMPDEST PUSH0 DUP2 SWAP1 POP SWAP2 SWAP1 POP JUMP JUMPDEST PUSH2 0x3AA DUP4 PUSH2 0x377 JUMP JUMPDEST PUSH2 0x3BE PUSH2 0x3B6 DUP3 PUSH2 0x398 JUMP JUMPDEST DUP5 DUP5 SLOAD PUSH2 0x31D JUMP JUMPDEST DUP3 SSTORE POP POP POP POP JUMP JUMPDEST PUSH0 PUSH0 SWAP1 POP SWAP1 JUMP JUMPDEST PUSH2 0x3D5 PUSH2 0x3C6 JUMP JUMPDEST PUSH2 0x3E0 DUP2 DUP5 DUP5 PUSH2 0x3A1 JUMP JUMPDEST POP POP POP JUMP JUMPDEST JUMPDEST DUP2 DUP2 LT ISZERO PUSH2 0x403 JUMPI PUSH2 0x3F8 PUSH0 DUP3 PUSH2 0x3CD JUMP JUMPDEST PUSH1 0x1 DUP2 ADD SWAP1 POP PUSH2 0x3E6 JUMP JUMPDEST POP POP JUMP JUMPDEST PUSH1 0x1F DUP3 GT ISZERO PUSH2 0x448 JUMPI PUSH2 0x419 DUP2 PUSH2 0x2F0 JUMP JUMPDEST PUSH2 0x422 DUP5 PUSH2 0x302 JUMP JUMPDEST DUP2 ADD PUSH1 0x20 DUP6 LT ISZERO PUSH2 0x431 JUMPI DUP2 SWAP1 POP JUMPDEST PUSH2 0x445 PUSH2 0x43D DUP6 PUSH2 0x302 JUMP JUMPDEST DUP4 ADD DUP3 PUSH2 0x3E5 JUMP JUMPDEST POP POP JUMPDEST POP POP POP JUMP JUMPDEST PUSH0 DUP3 DUP3 SHR SWAP1 POP SWAP3 SWAP2 POP POP JUMP JUMPDEST PUSH0 PUSH2 0x468 PUSH0 NOT DUP5 PUSH1 0x8 MUL PUSH2 0x44D JUMP JUMPDEST NOT DUP1 DUP4 AND SWAP2 POP POP SWAP3 SWAP2 POP POP JUMP JUMPDEST PUSH0 PUSH2 0x480 DUP4 DUP4 PUSH2 0x459 JUMP JUMPDEST SWAP2 POP DUP3 PUSH1 0x2 MUL DUP3 OR SWAP1 POP SWAP3 SWAP2 POP POP JUMP JUMPDEST PUSH2 0x499 DUP3 PUSH2 0x289 JUMP JUMPDEST PUSH8 0xFFFFFFFFFFFFFFFF DUP2 GT ISZERO PUSH2 0x4B2 JUMPI PUSH2 0x4B1 PUSH2 0x10B JUMP JUMPDEST JUMPDEST PUSH2 0x4BC DUP3 SLOAD PUSH2 0x2C0 JUMP JUMPDEST PUSH2 0x4C7 DUP3 DUP3 DUP6 PUSH2 0x407 JUMP JUMPDEST PUSH0 PUSH1 0x20 SWAP1 POP PUSH1 0x1F DUP4 GT PUSH1 0x1 DUP2 EQ PUSH2 0x4F8 JUMPI PUSH0 DUP5 ISZERO PUSH2 0x4E6 JUMPI DUP3 DUP8 ADD MLOAD SWAP1 POP JUMPDEST PUSH2 0x4F0 DUP6 DUP3 PUSH2 0x475 JUMP JUMPDEST DUP7 SSTORE POP PUSH2 0x557 JUMP JUMPDEST PUSH1 0x1F NOT DUP5 AND PUSH2 0x506 DUP7 PUSH2 0x2F0 JUMP JUMPDEST PUSH0 JUMPDEST DUP3 DUP2 LT ISZERO PUSH2 0x52D JUMPI DUP5 DUP10 ADD MLOAD DUP3 SSTORE PUSH1 0x1 DUP3 ADD SWAP2 POP PUSH1 0x20 DUP6 ADD SWAP5 POP PUSH1 0x20 DUP2 ADD SWAP1 POP PUSH2 0x508 JUMP JUMPDEST DUP7 DUP4 LT ISZERO PUSH2 0x54A JUMPI DUP5 DUP10 ADD MLOAD PUSH2 0x546 PUSH1 0x1F DUP10 AND DUP3 PUSH2 0x459 JUMP JUMPDEST DUP4 SSTORE POP JUMPDEST PUSH1 0x1 PUSH1 0x2 DUP9 MUL ADD DUP9 SSTORE POP POP POP JUMPDEST POP POP POP POP POP POP JUMP JUMPDEST PUSH2 0x95C DUP1 PUSH2 0x56C PUSH0 CODECOPY PUSH0 RETURN INVALID PUSH1 0x80 PUSH1 0x40 MSTORE CALLVALUE DUP1 ISZERO PUSH2 0xF JUMPI PUSH0 PUSH0 REVERT JUMPDEST POP PUSH1 0x4 CALLDATASIZE LT PUSH2 0x4A JUMPI PUSH0 CALLDATALOAD PUSH1 0xE0 SHR DUP1 PUSH4 0x61678BF EQ PUSH2 0x4E JUMPI DUP1 PUSH4 0x24B1CC13 EQ PUSH2 0x6D JUMPI DUP1 PUSH4 0x35C30510 EQ PUSH2 0x8B JUMPI DUP1 PUSH4 0xBD296297 EQ PUSH2 0xA7 JUMPI JUMPDEST PUSH0 PUSH0 REVERT JUMPDEST PUSH2 0x56 PUSH2 0xC3 JUMP JUMPDEST PUSH1 0x40 MLOAD PUSH2 0x64 SWAP3 SWAP2 SWAP1 PUSH2 0x36E JUMP JUMPDEST PUSH1 0x40 MLOAD DUP1 SWAP2 SUB SWAP1 RETURN JUMPDEST PUSH2 0x75 PUSH2 0x161 JUMP JUMPDEST PUSH1 0x40 MLOAD PUSH2 0x82 SWAP2 SWAP1 PUSH2 0x39C JUMP JUMPDEST PUSH1 0x40 MLOAD DUP1 SWAP2 SUB SWAP1 RETURN JUMPDEST PUSH2 0xA5 PUSH1 0x4 DUP1 CALLDATASIZE SUB DUP2 ADD SWAP1 PUSH2 0xA0 SWAP2 SWAP1 PUSH2 0x4F2 JUMP JUMPDEST PUSH2 0x16C JUMP JUMPDEST STOP JUMPDEST PUSH2 0xC1 PUSH1 0x4 DUP1 CALLDATASIZE SUB DUP2 ADD SWAP1 PUSH2 0xBC SWAP2 SWAP1 PUSH2 0x4F2 JUMP JUMPDEST PUSH2 0x229 JUMP JUMPDEST STOP JUMPDEST PUSH0 PUSH1 0x60 PUSH1 0x1 PUSH0 ADD SLOAD PUSH1 0x1 DUP1 ADD DUP1 DUP1 SLOAD PUSH2 0xDB SWAP1 PUSH2 0x566 JUMP JUMPDEST DUP1 PUSH1 0x1F ADD PUSH1 0x20 DUP1 SWAP2 DIV MUL PUSH1 0x20 ADD PUSH1 0x40 MLOAD SWAP1 DUP2 ADD PUSH1 0x40 MSTORE DUP1 SWAP3 SWAP2 SWAP1 DUP2 DUP2 MSTORE PUSH1 0x20 ADD DUP3 DUP1 SLOAD PUSH2 0x107 SWAP1 PUSH2 0x566 JUMP JUMPDEST DUP1 ISZERO PUSH2 0x152 JUMPI DUP1 PUSH1 0x1F LT PUSH2 0x129 JUMPI PUSH2 0x100 DUP1 DUP4 SLOAD DIV MUL DUP4 MSTORE SWAP2 PUSH1 0x20 ADD SWAP2 PUSH2 0x152 JUMP JUMPDEST DUP3 ADD SWAP2 SWAP1 PUSH0 MSTORE PUSH1 0x20 PUSH0 KECCAK256 SWAP1 JUMPDEST DUP2 SLOAD DUP2 MSTORE SWAP1 PUSH1 0x1 ADD SWAP1 PUSH1 0x20 ADD DUP1 DUP4 GT PUSH2 0x135 JUMPI DUP3 SWAP1 SUB PUSH1 0x1F AND DUP3 ADD SWAP2 JUMPDEST POP POP POP POP POP SWAP1 POP SWAP2 POP SWAP2 POP SWAP1 SWAP2 JUMP JUMPDEST PUSH0 PUSH1 0x1 PUSH0 ADD SLOAD SWAP1 POP SWAP1 JUMP JUMPDEST PUSH0 PUSH0 SWAP1 SLOAD SWAP1 PUSH2 0x100 EXP SWAP1 DIV PUSH20 0xFFFFFFFFFFFFFFFFFFFFFFFFFFFFFFFFFFFFFFFF AND PUSH20 0xFFFFFFFFFFFFFFFFFFFFFFFFFFFFFFFFFFFFFFFF AND CALLER PUSH20 0xFFFFFFFFFFFFFFFFFFFFFFFFFFFFFFFFFFFFFFFF AND EQ PUSH2 0x1FA JUMPI PUSH1 0x40 MLOAD PUSH32 0x8C379A000000000000000000000000000000000000000000000000000000000 DUP2 MSTORE PUSH1 0x4 ADD PUSH2 0x1F1 SWAP1 PUSH2 0x606 JUMP JUMPDEST PUSH1 0x40 MLOAD DUP1 SWAP2 SUB SWAP1 REVERT JUMPDEST PUSH1 0x1 DUP1 PUSH0 ADD PUSH0 DUP3 DUP3 SLOAD PUSH2 0x20D SWAP2 SWAP1 PUSH2 0x651 JUMP JUMPDEST SWAP3 POP POP DUP2 SWAP1 SSTORE POP DUP1 PUSH1 0x1 DUP1 ADD SWAP1 DUP2 PUSH2 0x225 SWAP2 SWAP1 PUSH2 0x824 JUMP JUMPDEST POP POP JUMP JUMPDEST PUSH0 PUSH0 SWAP1 SLOAD SWAP1 PUSH2 0x100 EXP SWAP1 DIV PUSH20 0xFFFFFFFFFFFFFFFFFFFFFFFFFFFFFFFFFFFFFFFF AND PUSH20 0xFFFFFFFFFFFFFFFFFFFFFFFFFFFFFFFFFFFFFFFF AND CALLER PUSH20 0xFFFFFFFFFFFFFFFFFFFFFFFFFFFFFFFFFFFFFFFF AND EQ PUSH2 0x2B7 JUMPI PUSH1 0x40 MLOAD PUSH32 0x8C379A000000000000000000000000000000000000000000000000000000000 DUP2 MSTORE PUSH1 0x4 ADD PUSH2 0x2AE SWAP1 PUSH2 0x606 JUMP JUMPDEST PUSH1 0x40 MLOAD DUP1 SWAP2 SUB SWAP1 REVERT JUMPDEST PUSH1 0x1 DUP1 PUSH0 ADD PUSH0 DUP3 DUP3 SLOAD PUSH2 0x2CA SWAP2 SWAP1 PUSH2 0x8F3 JUMP JUMPDEST SWAP3 POP POP DUP2 SWAP1 SSTORE POP DUP1 PUSH1 0x1 DUP1 ADD SWAP1 DUP2 PUSH2 0x2E2 SWAP2 SWAP1 PUSH2 0x824 JUMP JUMPDEST POP POP JUMP JUMPDEST PUSH0 DUP2 SWAP1 POP SWAP2 SWAP1 POP JUMP JUMPDEST PUSH2 0x2F8 DUP2 PUSH2 0x2E6 JUMP JUMPDEST DUP3 MSTORE POP POP JUMP JUMPDEST PUSH0 DUP2 MLOAD SWAP1 POP SWAP2 SWAP1 POP JUMP JUMPDEST PUSH0 DUP3 DUP3 MSTORE PUSH1 0x20 DUP3 ADD SWAP1 POP SWAP3 SWAP2 POP POP JUMP JUMPDEST DUP3 DUP2 DUP4 MCOPY PUSH0 DUP4 DUP4 ADD MSTORE POP POP POP JUMP JUMPDEST PUSH0 PUSH1 0x1F NOT PUSH1 0x1F DUP4 ADD AND SWAP1 POP SWAP2 SWAP1 POP JUMP JUMPDEST PUSH0 PUSH2 0x340 DUP3 PUSH2 0x2FE JUMP JUMPDEST PUSH2 0x34A DUP2 DUP6 PUSH2 0x308 JUMP JUMPDEST SWAP4 POP PUSH2 0x35A DUP2 DUP6 PUSH1 0x20 DUP7 ADD PUSH2 0x318 JUMP JUMPDEST PUSH2 0x363 DUP2 PUSH2 0x326 JUMP JUMPDEST DUP5 ADD SWAP2 POP POP SWAP3 SWAP2 POP POP JUMP JUMPDEST PUSH0 PUSH1 0x40 DUP3 ADD SWAP1 POP PUSH2 0x381 PUSH0 DUP4 ADD DUP6 PUSH2 0x2EF JUMP JUMPDEST DUP2 DUP2 SUB PUSH1 0x20 DUP4 ADD MSTORE PUSH2 0x393 DUP2 DUP5 PUSH2 0x336 JUMP JUMPDEST SWAP1 POP SWAP4 SWAP3 POP POP POP JUMP JUMPDEST PUSH0 PUSH1 0x20 DUP3 ADD SWAP1 POP PUSH2 0x3AF PUSH0 DUP4 ADD DUP5 PUSH2 0x2EF JUMP JUMPDEST SWAP3 SWAP2 POP POP JUMP JUMPDEST PUSH0 PUSH1 0x40 MLOAD SWAP1 POP SWAP1 JUMP JUMPDEST PUSH0 PUSH0 REVERT JUMPDEST PUSH0 PUSH0 REVERT JUMPDEST PUSH0 PUSH0 REVERT JUMPDEST PUSH0 PUSH0 REVERT JUMPDEST PUSH32 0x4E487B7100000000000000000000000000000000000000000000000000000000 PUSH0 MSTORE PUSH1 0x41 PUSH1 0x4 MSTORE PUSH1 0x24 PUSH0 REVERT JUMPDEST PUSH2 0x404 DUP3 PUSH2 0x326 JUMP JUMPDEST DUP2 ADD DUP2 DUP2 LT PUSH8 0xFFFFFFFFFFFFFFFF DUP3 GT OR ISZERO PUSH2 0x423 JUMPI PUSH2 0x422 PUSH2 0x3CE JUMP JUMPDEST JUMPDEST DUP1 PUSH1 0x40 MSTORE POP POP POP JUMP JUMPDEST PUSH0 PUSH2 0x435 PUSH2 0x3B5 JUMP JUMPDEST SWAP1 POP PUSH2 0x441 DUP3 DUP3 PUSH2 0x3FB JUMP JUMPDEST SWAP2 SWAP1 POP JUMP JUMPDEST PUSH0 PUSH8 0xFFFFFFFFFFFFFFFF DUP3 GT ISZERO PUSH2 0x460 JUMPI PUSH2 0x45F PUSH2 0x3CE JUMP JUMPDEST JUMPDEST PUSH2 0x469 DUP3 PUSH2 0x326 JUMP JUMPDEST SWAP1 POP PUSH1 0x20 DUP2 ADD SWAP1 POP SWAP2 SWAP1 POP JUMP JUMPDEST DUP3 DUP2 DUP4 CALLDATACOPY PUSH0 DUP4 DUP4 ADD MSTORE POP POP POP JUMP JUMPDEST PUSH0 PUSH2 0x496 PUSH2 0x491 DUP5 PUSH2 0x446 JUMP JUMPDEST PUSH2 0x42C JUMP JUMPDEST SWAP1 POP DUP3 DUP2 MSTORE PUSH1 0x20 DUP2 ADD DUP5 DUP5 DUP5 ADD GT ISZERO PUSH2 0x4B2 JUMPI PUSH2 0x4B1 PUSH2 0x3CA JUMP JUMPDEST JUMPDEST PUSH2 0x4BD DUP5 DUP3 DUP6 PUSH2 0x476 JUMP JUMPDEST POP SWAP4 SWAP3 POP POP POP JUMP JUMPDEST PUSH0 DUP3 PUSH1 0x1F DUP4 ADD SLT PUSH2 0x4D9 JUMPI PUSH2 0x4D8 PUSH2 0x3C6 JUMP JUMPDEST JUMPDEST DUP2 CALLDATALOAD PUSH2 0x4E9 DUP5 DUP3 PUSH1 0x20 DUP7 ADD PUSH2 0x484 JUMP JUMPDEST SWAP2 POP POP SWAP3 SWAP2 POP POP JUMP JUMPDEST PUSH0 PUSH1 0x20 DUP3 DUP5 SUB SLT ISZERO PUSH2 0x507 JUMPI PUSH2 0x506 PUSH2 0x3BE JUMP JUMPDEST JUMPDEST PUSH0 DUP3 ADD CALLDATALOAD PUSH8 0xFFFFFFFFFFFFFFFF DUP2 GT ISZERO PUSH2 0x524 JUMPI PUSH2 0x523 PUSH2 0x3C2 JUMP JUMPDEST JUMPDEST PUSH2 0x530 DUP5 DUP3 DUP6 ADD PUSH2 0x4C5 JUMP JUMPDEST SWAP2 POP POP SWAP3 SWAP2 POP POP JUMP JUMPDEST PUSH32 0x4E487B7100000000000000000000000000000000000000000000000000000000 PUSH0 MSTORE PUSH1 0x22 PUSH1 0x4 MSTORE PUSH1 0x24 PUSH0 REVERT JUMPDEST PUSH0 PUSH1 0x2 DUP3 DIV SWAP1 POP PUSH1 0x1 DUP3 AND DUP1 PUSH2 0x57D JUMPI PUSH1 0x7F DUP3 AND SWAP2 POP JUMPDEST PUSH1 0x20 DUP3 LT DUP2 SUB PUSH2 0x590 JUMPI PUSH2 0x58F PUSH2 0x539 JUMP JUMPDEST JUMPDEST POP SWAP2 SWAP1 POP JUMP JUMPDEST PUSH32 0x4F6E6C7920746865206F776E65722063616E20696E6372656D656E74206F7220 PUSH0 DUP3 ADD MSTORE PUSH32 0x64656372656D656E742074686520636F756E7465720000000000000000000000 PUSH1 0x20 DUP3 ADD MSTORE POP JUMP JUMPDEST PUSH0 PUSH2 0x5F0 PUSH1 0x35 DUP4 PUSH2 0x308 JUMP JUMPDEST SWAP2 POP PUSH2 0x5FB DUP3 PUSH2 0x596 JUMP JUMPDEST PUSH1 0x40 DUP3 ADD SWAP1 POP SWAP2 SWAP1 POP JUMP JUMPDEST PUSH0 PUSH1 0x20 DUP3 ADD SWAP1 POP DUP2 DUP2 SUB PUSH0 DUP4 ADD MSTORE PUSH2 0x61D DUP2 PUSH2 0x5E4 JUMP JUMPDEST SWAP1 POP SWAP2 SWAP1 POP JUMP JUMPDEST PUSH32 0x4E487B7100000000000000000000000000000000000000000000000000000000 PUSH0 MSTORE PUSH1 0x11 PUSH1 0x4 MSTORE PUSH1 0x24 PUSH0 REVERT JUMPDEST PUSH0 PUSH2 0x65B DUP3 PUSH2 0x2E6 JUMP JUMPDEST SWAP2 POP PUSH2 0x666 DUP4 PUSH2 0x2E6 JUMP JUMPDEST SWAP3 POP DUP3 DUP3 ADD SWAP1 POP DUP1 DUP3 GT ISZERO PUSH2 0x67E JUMPI PUSH2 0x67D PUSH2 0x624 JUMP JUMPDEST JUMPDEST SWAP3 SWAP2 POP POP JUMP JUMPDEST PUSH0 DUP2 SWAP1 POP DUP2 PUSH0 MSTORE PUSH1 0x20 PUSH0 KECCAK256 SWAP1 POP SWAP2 SWAP1 POP JUMP JUMPDEST PUSH0 PUSH1 0x20 PUSH1 0x1F DUP4 ADD DIV SWAP1 POP SWAP2 SWAP1 POP JUMP JUMPDEST PUSH0 DUP3 DUP3 SHL SWAP1 POP SWAP3 SWAP2 POP POP JUMP JUMPDEST PUSH0 PUSH1 0x8 DUP4 MUL PUSH2 0x6E0 PUSH32 0xFFFFFFFFFFFFFFFFFFFFFFFFFFFFFFFFFFFFFFFFFFFFFFFFFFFFFFFFFFFFFFFF DUP3 PUSH2 0x6A5 JUMP JUMPDEST PUSH2 0x6EA DUP7 DUP4 PUSH2 0x6A5 JUMP JUMPDEST SWAP6 POP DUP1 NOT DUP5 AND SWAP4 POP DUP1 DUP7 AND DUP5 OR SWAP3 POP POP POP SWAP4 SWAP3 POP POP POP JUMP JUMPDEST PUSH0 DUP2 SWAP1 POP SWAP2 SWAP1 POP JUMP JUMPDEST PUSH0 PUSH2 0x725 PUSH2 0x720 PUSH2 0x71B DUP5 PUSH2 0x2E6 JUMP JUMPDEST PUSH2 0x702 JUMP JUMPDEST PUSH2 0x2E6 JUMP JUMPDEST SWAP1 POP SWAP2 SWAP1 POP JUMP JUMPDEST PUSH0 DUP2 SWAP1 POP SWAP2 SWAP1 POP JUMP JUMPDEST PUSH2 0x73E DUP4 PUSH2 0x70B JUMP JUMPDEST PUSH2 0x752 PUSH2 0x74A DUP3 PUSH2 0x72C JUMP JUMPDEST DUP5 DUP5 SLOAD PUSH2 0x6B1 JUMP JUMPDEST DUP3 SSTORE POP POP POP POP JUMP JUMPDEST PUSH0 PUSH0 SWAP1 POP SWAP1 JUMP JUMPDEST PUSH2 0x769 PUSH2 0x75A JUMP JUMPDEST PUSH2 0x774 DUP2 DUP5 DUP5 PUSH2 0x735 JUMP JUMPDEST POP POP POP JUMP JUMPDEST JUMPDEST DUP2 DUP2 LT ISZERO PUSH2 0x797 JUMPI PUSH2 0x78C PUSH0 DUP3 PUSH2 0x761 JUMP JUMPDEST PUSH1 0x1 DUP2 ADD SWAP1 POP PUSH2 0x77A JUMP JUMPDEST POP POP JUMP JUMPDEST PUSH1 0x1F DUP3 GT ISZERO PUSH2 0x7DC JUMPI PUSH2 0x7AD DUP2 PUSH2 0x684 JUMP JUMPDEST PUSH2 0x7B6 DUP5 PUSH2 0x696 JUMP JUMPDEST DUP2 ADD PUSH1 0x20 DUP6 LT ISZERO PUSH2 0x7C5 JUMPI DUP2 SWAP1 POP JUMPDEST PUSH2 0x7D9 PUSH2 0x7D1 DUP6 PUSH2 0x696 JUMP JUMPDEST DUP4 ADD DUP3 PUSH2 0x779 JUMP JUMPDEST POP POP JUMPDEST POP POP POP JUMP JUMPDEST PUSH0 DUP3 DUP3 SHR SWAP1 POP SWAP3 SWAP2 POP POP JUMP JUMPDEST PUSH0 PUSH2 0x7FC PUSH0 NOT DUP5 PUSH1 0x8 MUL PUSH2 0x7E1 JUMP JUMPDEST NOT DUP1 DUP4 AND SWAP2 POP POP SWAP3 SWAP2 POP POP JUMP JUMPDEST PUSH0 PUSH2 0x814 DUP4 DUP4 PUSH2 0x7ED JUMP JUMPDEST SWAP2 POP DUP3 PUSH1 0x2 MUL DUP3 OR SWAP1 POP SWAP3 SWAP2 POP POP JUMP JUMPDEST PUSH2 0x82D DUP3 PUSH2 0x2FE JUMP JUMPDEST PUSH8 0xFFFFFFFFFFFFFFFF DUP2 GT ISZERO PUSH2 0x846 JUMPI PUSH2 0x845 PUSH2 0x3CE JUMP JUMPDEST JUMPDEST PUSH2 0x850 DUP3 SLOAD PUSH2 0x566 JUMP JUMPDEST PUSH2 0x85B DUP3 DUP3 DUP6 PUSH2 0x79B JUMP JUMPDEST PUSH0 PUSH1 0x20 SWAP1 POP PUSH1 0x1F DUP4 GT PUSH1 0x1 DUP2 EQ PUSH2 0x88C JUMPI PUSH0 DUP5 ISZERO PUSH2 0x87A JUMPI DUP3 DUP8 ADD MLOAD SWAP1 POP JUMPDEST PUSH2 0x884 DUP6 DUP3 PUSH2 0x809 JUMP JUMPDEST DUP7 SSTORE POP PUSH2 0x8EB JUMP JUMPDEST PUSH1 0x1F NOT DUP5 AND PUSH2 0x89A DUP7 PUSH2 0x684 JUMP JUMPDEST PUSH0 JUMPDEST DUP3 DUP2 LT ISZERO PUSH2 0x8C1 JUMPI DUP5 DUP10 ADD MLOAD DUP3 SSTORE PUSH1 0x1 DUP3 ADD SWAP2 POP PUSH1 0x20 DUP6 ADD SWAP5 POP PUSH1 0x20 DUP2 ADD SWAP1 POP PUSH2 0x89C JUMP JUMPDEST DUP7 DUP4 LT ISZERO PUSH2 0x8DE JUMPI DUP5 DUP10 ADD MLOAD PUSH2 0x8DA PUSH1 0x1F DUP10 AND DUP3 PUSH2 0x7ED JUMP JUMPDEST DUP4 SSTORE POP JUMPDEST PUSH1 0x1 PUSH1 0x2 DUP9 MUL ADD DUP9 SSTORE POP POP POP JUMPDEST POP POP POP POP POP POP JUMP JUMPDEST PUSH0 PUSH2 0x8FD DUP3 PUSH2 0x2E6 JUMP JUMPDEST SWAP2 POP PUSH2 0x908 DUP4 PUSH2 0x2E6 JUMP JUMPDEST SWAP3 POP DUP3 DUP3 SUB SWAP1 POP DUP2 DUP2 GT ISZERO PUSH2 0x920 JUMPI PUSH2 0x91F PUSH2 0x624 JUMP JUMPDEST JUMPDEST SWAP3 SWAP2 POP POP JUMP INVALID LOG2 PUSH5 0x6970667358 0x22 SLT KECCAK256 MSIZE CALLF 0xCBA3 PUSH29 0x1199AFC7BFAA3745C38CD5017A4F4C0AF8277E366FDD6FBB2EFDFF6473 PUSH16 0x6C634300081E00330000000000000000 "
		},
		"gasEstimates": {
			"creation": {
				"codeDepositCost": "479200",
				"executionCost": "infinite",
				"totalCost": "infinite"
			},
			"external": {
				"decrement_counter(string)": "infinite",
				"get_counter_value()": "2437",
				"get_value_description()": "infinite",
				"increment_counter(string)": "infinite"
			}
		},
		"methodIdentifiers": {
			"decrement_counter(string)": "bd296297",
			"get_counter_value()": "24b1cc13",
			"get_value_description()": "061678bf",
			"increment_counter(string)": "35c30510"
		}
	},
	"abi": [
		{
			"inputs": [
				{
					"internalType": "uint256",
					"name": "initial_value",
					"type": "uint256"
				},
				{
					"internalType": "string",
					"name": "description",
					"type": "string"
				}
			],
			"stateMutability": "nonpayable",
			"type": "constructor"
		},
		{
			"inputs": [
				{
					"internalType": "string",
					"name": "description",
					"type": "string"
				}
			],
			"name": "decrement_counter",
			"outputs": [],
			"stateMutability": "nonpayable",
			"type": "function"
		},
		{
			"inputs": [],
			"name": "get_counter_value",
			"outputs": [
				{
					"internalType": "uint256",
					"name": "",
					"type": "uint256"
				}
			],
			"stateMutability": "view",
			"type": "function"
		},
		{
			"inputs": [],
			"name": "get_value_description",
			"outputs": [
				{
					"internalType": "uint256",
					"name": "",
					"type": "uint256"
				},
				{
					"internalType": "string",
					"name": "",
					"type": "string"
				}
			],
			"stateMutability": "view",
			"type": "function"
		},
		{
			"inputs": [
				{
					"internalType": "string",
					"name": "description",
					"type": "string"
				}
			],
			"name": "increment_counter",
			"outputs": [],
			"stateMutability": "nonpayable",
			"type": "function"
		}
	]
}